:100000000C9434000C9451000C9451000C94510049
:100010000C9451000C9451000C9451000C9451001C
:100020000C9451000C9451000C9451000C9451000C
:100030000C9451000C9451000C9451000C945100FC
:100040000C9451000C9453000C9451000C945100EA
:100050000C9451000C9451000C9451000C945100DC
:100060000C9451000C94510011241FBECFEFD8E026
:10007000DEBFCDBF19E0A0E0B1E0E2E5FCE002C0E8
:1000800005900D92A234B107D9F71AE0A2E4B9E0C5
:1000900001C01D92AC39B107E1F70E94E0050C9454
:1000A00027060C9400001F920F920FB60F92112496
:1000B0002F933F938F939F93EF93FF93F8948EB575
:1000C0008093470980914609882381F580914709EB
:1000D0008A3261F1E0914209F0E080914709ED56E2
:1000E000F64F8083809142098F5F8F77809342091A
:1000F000E0914209F0E0ED56F64F80818EBD80918F
:10010000130A9091140A01969093140A8093130A8B
:100110008091130A9091140A8038910539F481E096
:100120008093980A1092140A1092130A809146093B
:10013000882309F48FC08091130A9091140A0197C3
:1001400009F05AC080914709813108F07AC0809146
:10015000470980934A0980914A098823C9F180910F
:100160004A098130A9F080914A09823009F441C0DE
:1001700080914A09833061F080914A098430C9F145
:1001800080914A09853021F180914A09863011F425
:1001900082E02FC080914A09873051F180914A094D
:1001A0008830B1F080914A09893011F180914A0973
:1001B0008A30F1F080914A098B3011F48AE019C03D
:1001C00080914A098C3021F080914A098D3011F4D8
:1001D00084E00FC080914A098E3021F080914A0955
:1001E0008F3011F485E005C080914A09803149F5CE
:1001F00083E08093490925C080914909882319F437
:100200001092480916C0E091130AF091140A8091E7
:100210004709ED56F64F80832091130A3091140A56
:100220008091490990E02817390759F481E08093BB
:100230004809109246091092140A1092130A10925B
:1002400049098091130A9091140A01969093140A17
:100250008093130A809147098A32E9F48091130A46
:100260009091140A892BB9F4E091130AF091140AC1
:1002700080914709ED56F64F808381E080934609CF
:10028000109249098091130A9091140A0196909353
:10029000140A8093130A7894FF91EF919F918F91A4
:1002A0003F912F910F900FBE0F901F901895CF93F5
:1002B000DF93E62FF0E090E0AF0123E0440F551FFD
:1002C0002A95E1F7480F591FE557F64F208130E096
:1002D00002C0359527958A95E2F7FA01E55BF64F5E
:1002E000DA01A85AB54FEA01C85ED54F20FF09C010
:1002F0008091150A80838091160A8C938091170A49
:1003000008C08091990A808380919A0A8C93809189
:100310009B0A8883DF91CF910895AF92BF92CF92CD
:10032000DF92EF92FF920F931F93CF93DF93E82F0B
:10033000F0E08F0133E0000F111F3A95E1F7E55728
:10034000F64F8081682F70E0A090150AB090160AD1
:10035000C090170AD090990AE0909A0AF0909B0AF0
:1003600040E050E0CA01800F911F9B01042E02C0A3
:10037000359527950A94E2F7FC01E55BF64FDC0121
:10038000A85AB54FEC01C85ED54F20FF04C0A0822B
:10039000BC92C88203C0D082EC92F8824F5F5F4F5C
:1003A00048305105F9F6DF91CF911F910F91FF90E1
:1003B000EF90DF90CF90BF90AF9008951F9310E023
:1003C000812F0E948D011F5F1830D1F71F91089572
:1003D000EBE8F9E0119289E0E339F807D9F70895DD
:1003E000982F2EE330E0D9011196F901E55BF64F25
:1003F0008081FD01E55BF64F8083F901E85AF54FF6
:100400008081FD01E85AF54F8083F901E85EF54FE0
:100410008081A85EB54F8C932150304021F7909396
:100420004B096093580A4093180A0895982FA0E04A
:10043000B0E09D012F5F3F4FF901E55BF64F8081F2
:10044000FD01E55BF64F8083F901E85AF54F8081A5
:10045000FD01E85AF54F8083F901E85EF54F808190
:10046000A85EB54F8C932F33310511F0D901E1CF40
:1004700090938A096093970A4093570A0895AF9220
:10048000BF92CF92DF92EF92FF920F931F93CF9381
:10049000DF93082F88300CF067C068300CF064C020
:1004A000893F0CF461C0693F0CF45EC087FD02C057
:1004B00050E003C0582F519500E067FD02C080E076
:1004C00003C0862F819560E0E42FF0E073E0EE0F2B
:1004D000FF1F7A95E1F7E05CFE4F992787FD909525
:1004E000E80FF91F162F28E030E0B901681B790BDF
:1004F000812F992787FD9095681B790BE52EFF24A6
:10050000E7FCF0946901CE18DF0841E0A42EB12C7D
:1005100026C040E050E0EC01C557D64F17C080819F
:1005200090E09A012E0D3F1D02C0959587952A9562
:10053000E2F780FF09C0950102C0220F331FAA9580
:10054000E2F78881822B88834F5F5F4F802F840F73
:10055000A82FB0E0AC15BD0514F331961F5F812FB5
:1005600090E086179707ACF2DF91CF911F910F9122
:10057000FF90EF90DF90CF90BF90AF90089590E004
:10058000E92FE80FF0E0DF01A55BB64F6C93DF01C8
:10059000A85AB54F4C93E85EF54F2083985F90348E
:1005A00079F70895382F330F330F330F80E090E041
:1005B000E32FE80FF0E0DF01A55BB64F6C93DF019E
:1005C000A85AB54F4C93E85EF54F208301968830CA
:1005D000910571F7089520E030E0F901E55BF64FF1
:1005E0008083F901E85AF54F6083F901E85EF54F21
:1005F00040832F5F3F4F2034310579F7089540E065
:1006000050E06FE370E0FB01E41BF50BED56F64F95
:100610002081822F829586958770FA01E55BF64FDF
:100620008083822F90E08C71907095958795959539
:100630008795FA01E85AF54F80832370FA01E85E46
:10064000F54F20834F5F5F4F40345105E1F6109224
:10065000980A089560E070E0FB01EE0FFF1FDF01D4
:10066000AD56B64F4C91EC56F64F2081842F8F71CA
:10067000FB01E55BF64F808330E0C9018370907029
:10068000A3E0880F991FAA95E1F742954695477018
:10069000482BFB01E85AF54F40832C773070359595
:1006A000279535952795FB01E85EF54F20836F5F11
:1006B0007F4F6034710581F61092980A0895DF9398
:1006C000CF930F92CDB7DEB7898342988981880F87
:1006D000880F880F885F20E030E0482F50E04150BD
:1006E0005040409880914309FA01E21BF30BE55B0F
:1006F000F64F9081891710F4419A01C04198409AB1
:100700002F5F3F4F2830310561F720E030E04098FF
:1007100080914309FA01E21BF30BE85EF54F9081EB
:10072000891710F4419A01C04198409A2F5F3F4FBA
:100730002830310561F720E030E04098809143098E
:10074000FA01E21BF30BE85AF54F9081891710F478
:10075000419A01C04198409A2F5F3F4F28303105A0
:1007600061F7449A429A298181E090E002C0880FA3
:10077000991F2A95E2F78BB944980F90CF91DF919A
:1007800008951F9310E0812F0E945F031F5F1830B0
:10079000D1F71F910895CF93DF93F89480E090E014
:1007A00027E0FC01E55BF64F2083FC01E85AF54F9A
:1007B0001082FC01E85EF54F1082019680349105AD
:1007C00081F7C0E0D0E00E94C103219683E0C83EDB
:1007D000D807C9F780E090E027E0FC01E55BF64F21
:1007E0001082FC01E85AF54F2083FC01E85EF54FCA
:1007F000108201968034910581F7C0E0D0E00E941C
:10080000C103219683E0C83ED807C9F780E090E095
:1008100027E0FC01E55BF64F1082FC01E85AF54F3A
:100820001082FC01E85EF54F20830196803491052B
:1008300081F7C0E0D0E00E94C103219683E0C83E6A
:10084000D807C9F780E090E0FC01E55BF64F108225
:10085000FC01E85AF54F1082FC01E85EF54F10826A
:1008600001968034910581F778941BB8DF91CF9180
:10087000089591E095BB982F919596BDA89BFECFCA
:1008800081E085BB96BDA89BFECF0895CF93DF93F3
:10089000EC010DC08AEF0E9439048AEF0E943904EE
:1008A0008AEF0E9439048AEF0E9439042197209729
:1008B00089F7DF91CF910895F999FECF92BD81BD5F
:1008C00060BDFA9AF99A089580914A09873009F42F
:1008D00081C0883098F4833009F4CAC0843038F479
:1008E000813009F440C0823008F0C2C023C0853096
:1008F00009F45BC0863008F065C04AC08C3009F44A
:10090000BAC08D3050F48A3009F4B2C08B3008F090
:10091000AFC0883009F0FBC09AC08E3009F4BDC06A
:100920008E3008F4B1C08F3009F4D2C0803109F0A4
:10093000EEC06CC0409195093091960920919709BD
:1009400080E090E0FC01E55BF64F4083FC01E85A53
:10095000F54F3083FC01E85EF54F2083019680342B
:10096000910581F7089580919509882309F4CFC0F6
:1009700080919509893008F0CAC0809195098093CB
:1009800044096091440981E090E00E945C0408956C
:10099000809195098093150A809196098093160A93
:1009A000809197098093170A089580919509809303
:1009B000990A8091960980939A0A80919709809369
:1009C0009B0A0895EBE8F9E0119289E0E339F80712
:1009D000D9F74EC080919509883008F098C0809171
:1009E0009609883008F093C0E0919609F0E02091D4
:1009F0009509E557F64F81E090E002C0880F991FF6
:100A00002A95E2F72081282B20831CC0809195092C
:100A1000883008F07CC080919609883008F077C053
:100A2000E0919609F0E020919509E557F64F81E0B5
:100A300090E002C0880F991F2A95E2F780952081E7
:100A400082238083809196090E948D010895809170
:100A50009709803208F45BC08091970987FD57C0E1
:100A60008091950960919609409197090E943F02F3
:100A70000E94DE0108958091950960919609409148
:100A800097090E9416020895809195096091960930
:100A9000409197090E94F001089540919509309185
:100AA0009609209197099091980980E0E82FE40F2A
:100AB000F0E0DF01A55BB64F3C93DF01A85AB54FCC
:100AC0002C93E85EF54F9083885F803479F7089522
:100AD0002091950950919609409197093091980974
:100AE000220F220F220F80E090E0E22FE80FF0E0CB
:100AF000DF01A55BB64F5C93DF01A85AB54F4C935D
:100B0000E85EF54F308301968830910571F70895BE
:100B10001F9380E184B98CE285B98FE187B98FEFAB
:100B20008AB9409A439A419A429A449A80EC8CBD81
:100B3000F999FECF12BC11BCF89A80B58093450993
:100B4000809145098F3F91F411E010934509609120
:100B5000450980E090E00E945C0410934409609194
:100B6000440981E090E00E945C0428C0F999FECF1E
:100B700012BC11BCF89A80B5809345098091450953
:100B80008A3058F4809145098F5F809345096091C0
:100B9000450980E090E00E945C04F999FECF81E075
:100BA00090E092BD81BDF89A80B580934409809110
:100BB0004409893018F081E0809344091F91089519
:100BC0000E9488050E94CB038FEF8093150A109234
:100BD000160A1092170A1092990A10929A0A109205
:100BE0009B0AEBE8F9E0119289E0E339F807D9F7BD
:100BF0000E94DE0178941A9B0AC01092420910925A
:100C000046091092140A1092130A10924909809111
:100C10004809882331F00E94640410924A09109216
:100C200048090E94C1038091980A813011F40E9402
:100C30002A03809143098F5F8F7180934309DBCF33
:100C4000F999FECF92BD81BDF89A80B50895F894C8
:020C5000FFCFD4
:100C52000303030303030303030001000001000372
:100C62000300000000000003030000000000000376
:100C72000300000000000003030200000000020362
:100C8200030002020202000303030303030303033C
:100C920000000000000000000E111B1115110E00D3
:100CA2000E1F151F111F0E00000A1F1F1F0E04002A
:100CB20000040E1F1F0E0400040E0E041F1F04006A
:100CC20000040E1F1F040E000000000000000000C0
:100CD2000000000000000000000000000000000012
:100CE2000000000000000000001C181609090600A0
:100CF2000E11110E040E040000000000000000009E
:100D020018161A161A1B030000150E1B0E150000EA
:100D120002060E1E0E060200080C0E0F0E0C080034
:100D2200040E1F041F0E04000A0A0A0A0A000A001F
:100D32001E151516141414000E11060A0C110E00BD
:100D420000000000000F0F00040E1F041F0E040E0F
:100D5200040E1F0404040400040404041F0E04000F
:100D620000040C1F0C0400000004061F060400000F
:100D72000000000101011F00000A0A1F0A0A000008
:100D820004040E0E1F1F00001F1F0E0E040400009D
:100D92000000000000000000040E0E040400040025
:100DA2001B1B090000000000000A1F0A0A1F0A009C
:100DB200020E0106080704001313080402191900A1
:100DC20002050502150916000606020000000000D1
:100DD20004020202020204000204040404040200E7
:100DE200000A0E1F0E0A00000004041F0404000083
:100DF20000000000000606020000001F00000000C4
:100E020000000000000606000010080402010000B5
:100E12000E11191513110E000406040404040E0029
:100E22000E11100C02011F000E11100E10110E00F7
:100E3200080C0A091F0808001F01010F10110E00FB
:100E42000C02010F11110E001F1008040202020011
:100E52000E11110E11110E000E11111E10080600B6
:100E6200000006060006060000000606000606024E
:100E7200080402010204080000001F00001F000015
:100E820002040810080402000E11100C04000400F1
:100E92000E111D151D010E000E1111111F11110051
:100EA2000F11110F11110F000E11010101110E008E
:100EB2000F11111111110F001F01010F01011F006C
:100EC2001F01010F010101000E11011D11111E0070
:100ED2001111111F111111000E04040404040E005B
:100EE2001010101011110E0011090503050911004F
:100EF2000101010101011F00111B15111111110046
:100F020011131519111111000E11111111110E00E9
:100F12000F11110F010101000E1111111509160017
:100F22000F11110F091111000E11010E10110E00F7
:100F32001F040404040404001111111111110E0004
:100F420011111111110A04001111151515150A00BC
:100F520011110A040A1111001111110A04040400EA
:100F62000F08040201010F000E02020202020E002B
:100F720000010204081000000E08080808080E000C
:100F8200040A110000000080000000000000001FA1
:100F9200060604000000000000000E101E111E00D4
:100FA20001010F1111110F0000000E1101110E00AD
:100FB20010101E1111111E0000000E110F010E0063
:100FC2000C02020F0202020000001E11111E100E7E
:100FD20001010709090909000400040404040C00C2
:100FE20008000C08080809060101090503050900A3
:100FF2000404040404040C0000000B151511110074
:10100200000007090909090000000E1111110E0064
:1010120000000F11110F010100001E11111E10100E
:1010220000000D120202070000000E010E100E0059
:1010320000020F02020A040000000909090D0A0059
:1010420000001111110A040000001111151F0A00FD
:10105200000009090609090000000909090E040334
:1010620000000F0806010F000C02020302020C002E
:101072000404040004040400060808180808060012
:101082000A05000000000000040E1B11111F0000E1
:101092000E110101110E040609000909090D0A00C9
:1010A20018000E110F010E000E000E101E111E0070
:1010B2000A000E101E111E0006000E101E111E0048
:1010C2000E0A0E101E111E00000E1101110E040652
:1010D2000E000E110F010E000A000E110F010E007C
:1010E20006000E110F010E000A00040404040C0095
:1010F2000E00040404040C000200040404040C00A6
:101102000A00040A111F11000E0A0E1B111F110002
:1011120018001F010F011F0000000F141F051E0001
:101122001E05051F05051D000E000609090906001A
:101132000A00060909090600030006090909060052
:101142000E000909090D0A0003000909090D0A0028
:101152000A000909090E040309060909090906001A
:101162000A000909090906800000100E0D0B07008C
:101172000C12020F02121D001E19151515130F0075
:1011820000110A040A1100000814040E04040502E6
:101192000C000E101E111E000C00040404040C00AE
:1011A2000C000609090906000C000909090D0A00CC
:1011B2000A050007090909000A0500090B0D0900C3
:1011C2000E101E111E001E000609090906000F005E
:1011D2000400040601110E001E29352D35211E00C2
:1011E20000003F20200000000109050E11081C002C
:1011F2000109051A151C1000040004040E0E040057
:10120200000012091200000000000912090000008B
:101212002A8015802A801580150A150A150A150AD2
:10122200153F2A3F153F2A3F080808080808080802
:101232000808080E080808080C00040A111F11000B
:101242000E00040A111F11000680848A919F11006A
:101252000F10161216100F00282F202F28282828CA
:101262001414141414141414003F202F28282828AE
:10127200282F203F0000000000040E01010E040090
:10128200110A041F041F04000000000F08080808C8
:10129200080808F800000000080808FF0000000025
:1012A200000000FF08080808080808F808080808ED
:1012B200000000FF00000000080808FF08080808F6
:1012C200140A0E101E111E00140A040A111F110026
:1012D200051D011F0000000000F808E82828282842
:1012E20014F700FF0000000000FF00F714141414AC
:1012F20014F700F71414141400FF00FF000000009C
:101302001477007714141414110E1111110E110018
:101312000C0204081C120C000E12121712120E00FC
:101322000E001F010F011F000A001F010F011F0005
:1013320006001F010F011F00000000000000000056
:101342000C000E0404040E000E000E0404040E0031
:101352000A000E0404040E002020203C00000000BD
:101362000000001C040404043F3F3F3F3F3F3F3F57
:1013720000000000FFFFFFFF040404000404040057
:1013820006000E0404040E00FFFFFFFF0000000031
:10139200180C121212120C000007090709090701A2
:1013A2000E060909090906000306090909090600CA
:1013B2000A050006090906000A05060909090600C8
:1013C20000000909090701010003010709070103D8
:1013D20003010709090701030C00090909090600AD
:1013E2000E00090909090600030009090909060096
:1013F2000C000909090E04030C00110A040404007C
:10140200000E0000000000000606020000000000BE
:101412000000001C0000000000040E04000E00008A
:1014220020003F00001F0000010B051A151C1000D0
:101432001E151516141414000E11060A0C110E00B6
:101442000004001F000400000000000E0C00000059
:1014520006090906000000000000000A0000000062
:10146200000000020000000002030202000000006F
:101472000702060300000000030402070000000048
:1014820000000F0F0F0F000000000000000000001E
:02149200000850
:00000001FF
